:041B95000208000042
:071C4E00AE071FEE70FA2241
:101AEC00E4FDD2A37F08121C4EC2A37F5A121C4ED7
:101AFC00D2A37F08121C4EA2A3E433FD7F0A121C52
:031B0C004EAF05D4
:011B0F0022B3
:101B5500E4FDFC0CEC6016C2A300D2A30030A30286
:0F1B650042057F0A121C4EEC25E0FC80E7AF051D
:011B7400224E
:021B3300AD07FC
:101B3500E4FB0BEB6019D2A300C2A300ED1392A343
:0F1B45007F0A121C4EEDC313FDEB25E0FB80E47D
:011B5400226E
:101A6A00121AECEF60037F00227FCC121B337F44F3
:101A7A00121B33121AEC7FCC121B337FBE121B339C
:101A8A00121B558F08121B558F097F0A121C4E7F95
:021A9A00012227
:021C720080C030
:101BD000EF1FAA0670011E4A600BE4FDEDC3947866
:051BE00050EE0D80F73E
:011BE50022DD
:101BE6007580FFC2A2C2A0D2A1D2A200AF80C2A2BB
:051BF60000EF20E7EB09
:011BFB0022C7
:101BFC00AE07121BE6C2A2C2A0C2A18E80D2A20066
:061C0C00C2A200021BE66B
:101C1200AE07121BE6C2A2D2A0C2A18E80D2A2003F
:061C2200C2A200021BE655
:101BB3007F38121BFC7F0C121BFC7F06121BFC7F61
:0D1BC30001121BFCC2A4C2A5D2A6C2A7221B
:0A19A3008F598D5A8B5B8A5C895DB9
:1019AD00785E7C007D007BFF7A1C79727E007F0261
:1019BD00120E4EE4FD745E2559F8E6455AFF121BD2
:1019CD00FCAB5BAA5CA95D8D82758300120E8DFF49
:1019DD006007121C120DBD10E8EDC3941050087F66
:0719ED0020121C120D80F214
:0119F40022D0
:1018530025352E3166000D0A00DF430054656D7097
:10186300436F6E74726F6C53797374656D002020CF
:1018730057616974696E672E2E2E2E2E002020204C
:1018830020202020202020202020200052494E47C5
:101893005F4F50454E0054454D505F5550005445E1
:1018A3004D505F444F574E0057494E445F4F50458C
:1018B3004E0057494E445F434C4F5345004C4947F4
:1018C30048545F4F50454E004C494748545F434C82
:0A18D3004F534500524553455400A1
:101B9900013F00013A00042500000000043B000059
:091BA900000002230001012200EA
:061B10008B598A5A895B23
:101B1600E4FFAB59AA5AA95B8F82758300120E8D1A
:0C1B2600600AF5993099FDC2990F80E625
:011B32002290
:030023000219F5CA
:0919F500C0E0C0D075D000C000B4
:1019FE0030982CC298E599B424057522008020E514
:101A0E0099640D601AE599B40A05753A018010744F
:0F1A1E00402522F8A699052274402522F876006B
:071A2D00D000D0D0D0E03260
:101C2800759850758920758780758DFA758BFAD2ED
:061C3800AFD2ACD28E22F7
:1018DD008F588E578D568C557F0A7E00121BD075F2
:1018ED005CFF755D18755E53855862855761855629
:1018FD006085555F7B007A007929121120755CFF98
:10190D00755D18755E597B007A00792912194B7B2C
:10191D00007A007929121B10755CFF755D18755ED4
:10192D005C7B007A00792912194B7B007A007929AA
:0E193D007D047F011219A37F0A7E00021BD0D9
:101A9C008F5C8E5B8D5A8C59D290C291D292E4FF9E
:101AAC00FE7D107CC2AB5CAA5BA95AA85912080730
:091ABC00120AA9121BD0C29222E9
:101A34008F5C8E5B8D5A8C59C290D291D292AB5CE2
:101A4400AA5BA95AA859E4FFFE7D207C4112080331
:101A5400120AA9121BD0C292AF5CAE5BAD5AAC594C
:061A6400120AA9021BD0CA
:051C6300C290C29122B5
:101B7500E4F559C2B7F559B2B77F017E00121BD003
:101B85000559E559C3946440EE7F2C7E01021BD0B4
:081C3E00E4F523F5240218DD92
:081C4600E4F523F5240218DD8A
:1016B5008F588E578D568C557F0A7E00121BD0E4AD
:1016C500FFFE7DC87C42AB58AA57A956A8551209FA
:1016D500FE600D400BE4F558F5577556C875554233
:1016E500E4FFFE7D207C41AB58AA57A956A85512A8
:1016F50009FE4020E4FFFE7D107C42AB58AA57A9A5
:1017050056A8551209FE6002500AC2A4C2A5121CB1
:10171500630217C0E4FFFE7D107C42AB58AA57A9AF
:1017250056A8551209FE60294027E4FFFE7D707C0E
:1017350042AB58AA57A956A8551209FE6002501186
:10174500C2A4C2A5AF58AE57AD56AC55121A9C806F
:101755006AE4FFFEFDFCAB58AA57A956A855120925
:10176500FE4027E4FFFE7D207C41AB58AA57A956D1
:10177500A8551209FE60025011C2A4D2A5AF58AEF9
:1017850057AD56AC55121A348031E4FFFE7D707C9E
:1017950042AB58AA57A956A8551209FE401DE4FFA9
:1017A500FE7DC87C42AB58AA57A956A8551209FE1A
:1017B50060025007D2A4C2A5121B757F0A7E0002E3
:0217C5001BD037
:10153300121C28121BB37BFF7A18795FE4FDFF129C
:1015430019A37BFF7A187971E4FD7F011219A312A5
:101553001A6A7FE87E03121BD07BFF7A187980E436
:10156300FD7F011219A3121A6AEF604DE52464018D
:1015730045237045E509FEE508FFFDAC06EC120ABC
:1015830070E4FBFA7980783D1208F88F288E278D56
:10159300268C25AF28AE27AD26AC258F3E8E3D8DFC
:1015A3003C8C3BAF3EAE3DAD3CAC3B1218DDAF3E99
:1015B300AE3DAD3CAC3B1216B5E53A6401600302A7
:1015C30016A7F53A78407C00FD7BFF7A18798F12D5
:1015D30010A7EF7006121B7502168778407C007DFA
:1015E300007BFF7A1879991210A7EF7010783BFFF0
:1015F300FE7D807C3F120AE0121C3E802078407CF6
:10160300007D007BFF7A1879A11210A7EF701B7879
:101613003BFFFE7D807CBF120AE0121C46AF3EAE4C
:101623003DAD3CAC3B1216B5805A78407C007D0042
:101633007BFF7A1879AB1210A7EF7005121C688034
:101643004378407C007D007BFF7A1879B51210A7A0
:10165300EF7005121C6D802C78407C007D007BFFB1
:101663007A1879C01210A7EF7005121C55801578EF
:10167300407C007D007BFF7A1879CB1210A7EF70B6
:1016830003121C5CE5244523701A78407C00FD7B23
:10169300FF7A1879D71210A7EF7009121B757523FB
:1016A30000752401AF3EAE3DAD3CAC3B1216B50216
:0216B3001569B7
:051C6800D293C294229A
:051C6D00D293D2942285
:071C5500D2A7D295C296222E
:071C5C00C2A7D295D2962227
:10080000020B27E86480F8E933E83360110460F0F4
:10081000ED33EC337009E8FCE9FDEAFEEBFF22045E
:1008200060DED3EB9FEA9EE99DE8C2E78CF0C2F759
:1008300095F0400CE8CCF8E9CDF9EACEFAEBCFFB25
:10084000120AF285D0F05804700320D5B3E8047082
:10085000075002B2D5020B3192D5EC0460F7E4CC1C
:10086000C0E0C398F8603B94186008400DD0E0FBEE
:10087000020B09E4FBFAC9FC8028E830E406E4C96D
:10088000FBE4CAFCE830E305E4C9CACBFCE8540742
:100890006010F8C3E913F9EA13FAEB13FBEC13FC4D
:1008A000D8F130F52FC3E49CFCEF9BFFEE9AFEEDF0
:1008B00099FDD0E0FBEF4E4D4C701222DB03020B92
:1008C0002EEC2CFCEF33FFEE33FEED33FDED30E785
:1008D000EB020B09EF2BFFEE3AFEED39FDD0E0FB0A
:1008E00050130BBB0003020B31ED13FDEE13FEEFB3
:0808F00013FFEC13FC020B09DD
:1008F800EC4D6011E8497017ED33EC3304600DE4FA
:10090800FCFFFEFD22E933E8330470F8020B2712DE
:100918000AF258046009E4CC2481500628500902E0
:100928000B31284003020B2EC0E0EB4A7044B9801B
:1009380006D0E0FB020B1DEF4E701CBD8008EBFFDC
:10094800EAFEE9FD80EBE98DF0A4FEE5F00209E19D
:10095800E9CDF9EAFEEBFFEF89F0A4FCE5F0CE89DA
:10096800F0A42EFFE435F0CD89F0A42DFEE435F097
:100978008067EF4E7005BD80D780C3EF8BF0A4ACC5
:10098800F0EE8BF0A42CFCE435F0F8EF8AF0A42C00
:10099800E5F038FCE433CB8DF0A42CFCE5F03BF813
:1009A800EE8AF0A42CFCE5F038F8E433CF89F0A403
:1009B8002CFCE5F038CF3400CE89F0A42FFFE5F009
:1009C8003EFEE433C98DF0A42EFEE5F039CD8AF061
:1009D800A42FFFE5F03EFEE43DFD33D0E0FB5007D9
:1009E8000BBB000F020B31EC2CFCEF33FFEE33FE98
:0609F800ED33FD020B09C6
:1009FE0074F8CC6480CCC86480C8F582046043C3AC
:100A0E00EB9FF5F0EA9E42F0E99D42F0E89C45F03E
:100A1E0060305018E5825FFFE582F42B5582FB5063
:100A2E00210ABA001D09B90019088016E5825BFB80
:100A3E00E582F42F5582FF50090EBE00050DBD0054
:100A4E00010CC3EB9FF5F0EA9E42F0E99D42F0E8FF
:0D0A5E009C45F06007CC4820E701B3EC2276
:100A6B0075F020800E75F010800575F0087D007E06
:100A7B00007F003392D530D503120ECCEC334010EF
:100A8B00EF33FFEE33FEED33FDEC33FCD5F0ED220F
:0E0A9B00E5F0247EA2D513CC92E7CDCEFF224B
:100AA900EDD2E7CD33EC3392D524814006E4FFFE45
:100AB900FDFC22FCE4CFCECDCC24E0501174FF80A4
:100AC900EDC3CC13CCCD13CDCE13CECF13CF047041
:070AD900F030D5DE020ECC67
:100AE00088827D80E4FEFF120EDA120807A88202D7
:020AF0000EE70F
:1010C400E570245CF8E60570227859300702785CF4
:1010D400E475F001120EF3020E742000EB7F2ED2A1
:1010E400008018EF540F2490D43440D4FF30040B04
:1010F400EF24BFB41A0050032461FFE571600215A8
:10110400710574E5747002057330070D7859E47540
:10111400F001120EF3EF020EBA021AC57403D207DD
:101124008003E4C207F5708B598A5A895BE4F57130
:10113400F573F574E57160077F201210FF80F57573
:1011440072FFC201C200C202C203C205C206C208C3
:101154001210CDFF700D3007057F00121110AF740F
:10116400AE7322B4255FC2D5C2041210CDFF24D0C1
:10117400B40A00501A75F00A787130D50508B6FF24
:101184000106C6A426F620D5047002D20380D92411
:10119400CFB41A00EF5004C2E5D2040213FDD20109
:1011A40080C6D20080C0D20280BCD2D580BAD2051B
:1011B40080B47F201210FF2002077401B571004033
:1011C400F11210C4FF1210FF021138D208D20680A7
:1011D400951210C4FB1210C4FA1210C4F94A4B70D1
:1011E4000679F47A147BFF20022EE571602A7E00D2
:1011F4008E82758300120E8D60060EEE657270F09D
:10120400C2D5EBC0E0EAC0E0E9C0E0EE12145DD064
:10121400E0F9D0E0FAD0E0FB120E74FF60AAEBC054
:10122400E0EAC0E0E9C0E01210FFD0E02401F9D008
:10123400E03400FAD0E0FBE5720460DCD572D980BA
:1012440087D20280A212144060F7E5727001041282
:101254000B3CA972600DE572600914F5721214E773
:10126400EF60F3EA30E702F404C3995077EAF42517
:10127400720430E701E404F572800D12144060C179
:10128400EA05722572120B3CEA786FF630E701E446
:10129400257204D572042005011412145DE4C0E023
:1012A4001214E7786FE6601320E70714F61210E7CC
:1012B400802204F6D0E014C0E07F001210E7E5724B
:1012C40060071210DE1572800B3005031210DED099
:1012D400E0021138D0E00480C512144060A0E57229
:1012E40004120B3C786FEAF6E572200502600104F3
:0512F400240412145D4A
:1012F90074FF04C0E01214E71210E7E5722005023A
:1013090060031210DED0E0B572E87F451210F17863
:101319006FE67F2B30E7047F2DF404C0E01210FF45
:10132900D0E075F00A84C0F01210E8D0E01210E89D
:10133900021138791080027908C206C2088008D2E1
:10134900D5790A8004790AC2D5E572047002F5726A
:10135900E4FAFDFEFF1210C4FC7B082001131210F1
:10136900C4FD7B1030000A1210C4FE1210C4FF7BAA
:1013790020EC3382D592D55013C3E43000069FFF89
:10138900E49EFEE42001039DFDE49CFCE4CBF8C24D
:1013990001EC700CCFCECDCCE824F8F870F38017AF
:1013A900C3EF33FFEE33FEED33FDEC33FCEB33FBE0
:1013B900994002FB0FD8E9EB300105F8D0E0C448A9
:1013C900B201C0E00AEC4D4E4F78207B0070C2EAB2
:1013D900B5720040BCC0E012145FD0F0D0E020012B
:1013E90004C4C0E0C4B201C0F01210E8D0F0D5F0D6
:1013F900EB021138120F0311D553133C5811A64CA7
:1014090011A24213404F13484413484911BB4313D7
:101419004E55127F4612DD4512494715145011AA3F
:101429002D11AE2E11D12B11B22311CF2014FD2A6B
:10143900116A48000011C9E572B4FF0375720612FA
:1014490010C4FC1210C4FD1210C4FE1210C4FF789F
:1014590068020B6B790AA2D5200314300509B9106B
:10146900020404B9080104A2D5200602500104208F
:1014790002689202B571005034C0E07F2030031930
:101489007F30A20272067205500F1214B6C202C250
:1014990006C205C2087F30800F300503E9C0E0129B
:1014A90010FF300503D0E0F9D0E0B571CC30051755
:1014B9007F30B9100C1210FF7F583004077F7880F5
:1014C90003B908031210FF3002057F2D0210FF7FB8
:1014D900202008F87F2B2006F322920280CF7F007C
:1014E900B4070050052468F8E6FF22286E756C6C75
:1014F9002900D2011210C43001F8C201787130D527
:101509000108F602116A2D504349581210C42403E8
:10151900B405004001E490150F931210F0743A12CB
:0A15290010F0D20375710402133CA8
:100AF200E9D2E7C933E833F892D5EDD2E7CD33EC4A
:070B020033FC5002B2D522C2
:100B0900EC30E7100FBF000C0EBE00080DBD00044D
:100B19000BEB6014A2D5EB13FCED92E7FD2274FFF9
:100B2900FCFDFEFF22E480F8A2D574FF13FC7D8052
:030B3900E480EF66
:100B3C00F920E72824F950037907E4F42402FB1880
:100B4C00DBFDE624FB5014E9600DE4F618E604F630
:0F0B5C00B40A08E4F6D9F57401F60A22C2D522CC
:100B6B00ED33EC3392D5FA602AB4FF33EDC2E77B59
:100B7B00FF60067A0B7990E4227A0B799920D504E1
:100B8B007A0B7994224E614E002B494E46002D492B
:100B9B004E4600E47A08F608DAFC7B00740722E87C
:100BAB00C0E0ECC0E0EDC0E0EEC0E0EFC0E0EA7505
:100BBB00F010A4CAABF075F04DA42BFBE435F0FCA0
:100BCB00EA2410FAEB34C5FBEC34D9FCEDC2E7FF99
:100BDB0075F056A4F42411C5F0F434C58FF0A42A93
:100BEB00E5F03BE43CF620E714120D3ED0E0FFD0DD
:100BFB00E0FED0E0FDD0E0FC120C718014F4041286
:100C0B000D3ED0E0FFD0E0FED0E0FDD0E0FC1208BE
:100C1B00F8D0E0F8E6FAEDD2E7CD33EC332482FBE3
:100C2B00E4C3CF33CFCE33CECD33CD33DBF37B0722
:100C3B0075F00A846004F6081B0AE5F0F6088FF0DD
:100C4B00740AA4FFACF08EF0740AA42CFEACF05026
:100C5B00010C8DF0740AA42CFDE435F0F608DBDEF4
:030C6B00740722E9
:100C6E00020B31EC5D046005E859047003020B279A
:100C7E00120AF2580460F6EC4860F2EC7004FDFEC5
:100C8E00FF22C860DB2481C85009C3986002500659
:100C9E00020B2E9850CAF582E9294B4A7005AB8299
:100CAE00020B1D75F0007C1A7880C3EF9BEE9AED57
:100CBE0099400DC3EF9BFFEE9AFEED99FDE842F0D1
:100CCE00DC23ACF0D0E0FFD0E0FED0E0FDAB822024
:100CDE00E7101BEB60BAEC2CFCEF33FFEE33FEEDAE
:100CEE0033FD020B09E803F830E705C0F075F0009C
:100CFE00EF2FFFEE33FEED33FD40B830E7C280AA92
:100D0E003F8000004120000042C80000447A0000ED
:100D1E00461C400047C35000497424004B1896806F
:100D2E004CBEBC205A0E1BCA6753C21C749DC5AE66
:100D3E00FB60065407601C2323120D6CEB543860C5
:100D4E0009120D58120D671208F8ECF8EDF9EEFACB
:100D5E00EFCB22EB120D6780F1543803241C900D5B
:100D6E000EFE93FC0EEE93FD0EEE930ECE93FF222F
:030000000217C71D
:0C17C700787FE4F6D8FD75817402180EDE
:100D7E00E709F608DFFA8046E709F208DFFA803E57
:100D8E0088828C83E709F0A3DFFA8032E309F60844
:100D9E00DFFA8078E309F208DFFA807088828C83AC
:100DAE00E309F0A3DFFA806489828A83E0A3F60860
:100DBE00DFFA805889828A83E0A3F208DFFA804C3A
:100DCE0080D280FA80C680D4806980F28033801011
:100DDE0080A680EA809A80A880DA80E280CA80337A
:100DEE0089828A83ECFAE493A3C8C582C8CCC583F2
:100DFE00CCF0A3C8C582C8CCC583CCDFE9DEE780C2
:100E0E000D89828A83E493A3F608DFF9ECFAA9F040
:100E1E00EDFB2289828A83ECFAE0A3C8C582C8CC96
:100E2E00C583CCF0A3C8C582C8CCC583CCDFEADEAF
:100E3E00E880DB89828A83E493A3F208DFF980CC11
:100E4E0088F0EF60010E4E60C388F0ED2402B4040A
:100E5E000050B9F582EB2402B4040050AF232345B1
:060E6E008223900DCE73FB
:100E7400BB010689828A83E0225002E722BBFE027C
:090E8400E32289828A83E49322AF
:100E8D00BB010CE58229F582E5833AF583E022501A
:100E9D0006E92582F8E622BBFE06E92582F8E22264
:0D0EAD00E58229F582E5833AF583E493227E
:100EBA00BB010689828A83F0225002F722BBFE0117
:020ECA00F32211
:0E0ECC00C3E49FFFE49EFEE49DFDE49CFC2237
:0D0EDA00E6FB08E6F908E6FA08E6CBF82288
:0C0EE700ECF608EDF608EEF608EFF62237
:100EF300FAE6FB0808E6F925F0F618E6CA3AF62200
:100F0300D083D082F8E4937012740193700DA3A37D
:100F130093F8740193F5828883E473740293686091
:060F2300EFA3A3A380DF91
:101AC500EFB40A07740D121AD0740A309811A89948
:101AD500B8130CC2983098FDA899C298B811F63081
:071AE50099FDC299F5992259
:10194B008B598A5A895B8B5F8A608961AB59055BBE
:10195B00E55BAA5A7002055A14F9120E7470ED74F5
:10196B00FF255BF55B74FF355AF55AAB5C055EE5FD
:10197B005EAA5D7002055D14F9120E74FFAB59057A
:10198B005BE55BAA5A7002055A14F9EF120EBA7096
:08199B00DAAB5FAA60A961222A
:100F2900E3F5F009E208B5F06D606B80F3E3F5F0E5
:100F390009E608B5F060605E80F387F009E608B558
:100F4900F054605280F487F009E208B5F048604631
:100F590080F488828C8387F009E0A3B5F038603685
:100F690080F488828C8387F009E493A3B5F0276025
:100F79002580F388828C83E3F5F009E0A3B5F016A8
:100F8900601480F388828C83E3F5F009E493A3B5B8
:100F9900F004600280F2021054808580E7808E8020
:100FA900D2803C8015806C807E809B80B5808B8050
:100FB900A1804F8070803A02106089828A83ECFA9E
:100FC900E493F5F0A3C8C582C8CCC583CCE493A348
:100FD900C8C582C8CCC583CCB5F070606E80E18984
:100FE900828A83E493F5F0A3E208B5F05E605C8041
:100FF900F289828A83E0F5F0A3E608B5F04D604BEB
:1010090080F389828A83E0F5F0A3E208B5F03C60B9
:101019003A80F389828A83E493F5F0A3E608B5F070
:101029002A602880F2805389828A83ECFAE493F556
:10103900F0A3C8C582C8CCC583CCE0A3C8C582C803
:10104900CCC583CCB5F004600280E27FFFB5F00225
:101059000F2240027F012289828A83ECFAE0F5F0AF
:10106900A3C8C582C8CCC583CCE0A3C8C582C8CCF7
:10107900C583CCB5F0D560D380E389828A83ECFA45
:10108900E0F5F0A3C8C582C8CCC583CCE493A3C856
:10109900C582C8CCC583CCB5F0B160AF80E288F019
:1010A900ED2402B4040050A3F582EB2402B4040039
:0B10B90050992323458223900FA2735F
:1017D300021533E493A3F8E493A34003F68001F2E4
:1017E30008DFF48029E493A3F85407240CC8C33317
:1017F300C4540F4420C8834004F456800146F6DFE6
:10180300E4800B0102040810204080901B95E47EC5
:10181300019360BCA3FF543F30E509541FFEE493DA
:10182300A360010ECF54C025E060A840B8E493A3A1
:10183300FAE493A3F8E493A3C8C582C8CAC583CACC
:10184300F0A3C8C582C8CAC583CADFE9DEE780BE84
:011BB2000032
:00000001FF
